:4000000000800020110000001D0300001D03000008B5044B1A6803F53F5302331A6000F09DF900BFFA46004010B5054C237833B9044B13B10448AFF300800123237010BDA1
:400040007881FF1F0000000094150000084B10B51BB108480849AFF300800848036803B910BD074B002BFBD0BDE81040184700BF00000000941500007C81FF1F0881FF1F0F
:400080000000000008B5034A13680133136000F0D9FB08BD9481FF1F08B5034A53680133536000F0FDFB08BD9481FF1F08B5034A93680133936000F021FC08BD9481FF1F9B
:4000C00008B5034AD3680133D36000F079FC08BD9481FF1F08B5034A13690133136100F03FFC08BD9481FF1F08B5034A53690133536100F097FC08BD9481FF1F08B5034A73
:4001000093690133936100F0C1FC08BD9481FF1F08B5034AD3690133D36100F0EBFC08BD9481FF1F08B5034A136A0133136200F015FD08BD9481FF1F08B5034A536A013354
:40014000536200F03BFD08BD9481FF1F08B5034A936A0133936200F05FFD08BD9481FF1F08B5034AD36A0133D36200F083FD08BD9481FF1F08B5034A136B0133136300F0FC
:40018000A7FD08BD9481FF1F08B500F0C5FA024B586301229A6308BD9481FF1F084B00221A605A609A60DA601A615A619A61DA611A625A629A62DA621A63DA63704700BF2E
:4001C0009481FF1F2DE9F04F8DB01F4C22686368D118D4F808B05944D4F80CA05144D4F810904944D4F814804144D4F818C06144D4F81CE07144276A3944666A3144A56A5D
:400200002944E06A09900818216B0A910844E0634034CDF800B0CDF804A0CDF80890CDF80C80CDF810C0CDF814E00697079608950B902046054900F0A3FD204600F08EFAB6
:400240000DB0BDE8F08F00BF9481FF1F9815000008B562B6214800F0E7FA214800F012FB204800F03DFB204800F09CFB1F4800F069FB1F4800F0C8FB1E4800F0F9FB1E4885
:4002800000F02AFC1D4800F05BFC1D4800F088FC1C4800F0B3FC1C4800F0DEFC1B4800F009FD1B4800F08AFA00F028FA194800F055FA194B9B6B012BFBD1174B5B6B432B98
:4002C00002D0532B03D004E0FFF768FF01E0FFF779FF0022104B9A63EBE700BF8500000099000000AD000000C1000000D5000000E9000000FD0000001101000025010000C1
:40030000390100004D010000610100007501000089010000C81500009481FF1F08B500F0EFFC03680C2B00D1FEE7FEE708B5094B1A681044084BC31A802B02DC054B186086
:4003400005E000F0DDFC0C2303604FF0FF32104608BD00BF0C81FF1FE882FF1F08B5104E104D16E029686B68AC68002204E051F8040B43F8040B0432A242F8D1E8680022DD
:4003800003E0002143F8041B04328242F9D11035013E002EE6D100F0B9FCFFF759FFFEE7010000007416000008B5124A124B1A60124A136843F40073136000230AE0032B30
:4003C00003D80F4A52F8231000E00E490E4A42F8231001332F2BF2D90C4B1A780C4B1A70094A0C4B1A6000F0B7F800220A4B1A6008BD00BF0004FA050CED00E014ED00E038
:40040000000000001D0300000080FF1FBC7600400481FF1F08ED00E00081FF1FFEE700BFF0B40022174611E050F82760F3B226F0FF0608E001EB420511F812406D78A555D9
:400440000132013BDBB2002BF4D101371F2FEBD9F0BC7047064B1B78DBB203F00701054A11701B09013213704422034B1A707047CF0100496E5800407658004008B50A469E
:40048000002100F074FC08BD38B53322264B1A801823264A13704FF6FF7102321180023213700222224B1A7008224FF040231A70032103F5007319701E4B1B78DBB21E49D1
:4004C0000B701E4B1A8041F25122023B1A80002419250CE01A4B1B7803F0010343EA440404F003044FF4F07000F0FAFB013D0DB1032CEFD115B90320FFF790FF114B4FF4CC
:4005000080721A8007221A7000220F490A704820023108701A700222033B1A700B4A137843F00303137038BD80400040824000400043004008010049A146004022420040CC
:40054000254200400440004006400040A243004008B500F001FC08BD38B572B6354A137843F00403137000240CE0334963001A1952000A4423445B00C8589188FFF77EFF2A
:400580000134E4B2062CF0D900240BE02A49A3001A1952000A44D06A116B0822FFF7D8FF0134E4B2002CF1D04FF090402349FFF737FF234A137843F00203137010321378F1
:4005C00043F0020313701F4C237843F040032370A2F58632513A137843F0100313701A481A490A22FFF7B4FF19481A490822FFF7AFFF194819490822FFF7AAFF1848194989
:400600000A22FFF7A5FF184A137843F008031370164D61232B70FFF737FF81232B700122134B1A70FFF716FF124821460E22FFF78FFF38BDE8460040E015000080000048AE
:4006400003500140A04300400051004068070048C251004074070048125100407C0700482051004084070048224300400048004004000840B043004010B500F039FB044694
:400680000A4A137843F0200313700132137843F010031370A2F58172137843F01003137000F09AF8204600F027FB10BD99650040014B1878704700BF78650040014B1870D5
:4006C000704700BF7865004008B572220A4B1A70202201331A7006225F3B1A70472210331A700022B33B1A70FFF7E2FF00F0E700FFF7E4FF08BD00BF8965004008B5054BD5
:400700001B7823B9FFF7E0FF0122024B1A70FFF7B3FF08BDD482FF1F084B1B78DBB213F0200F06D0064A1078C0B213F01E0F02D17047002070470020704700BF6A6500409F
:400740004D640040034B1B7813F0040FFAD1024B18707047686400404864004038B5074B1B782BB938BDFFF7EDFF0134A4B201E005460024285D0028F5D138BDD482FF1FFE
:40078000014B1B685867704708ED00E04001C0B2014B1870704700BF0DE400E04FF40052014B1A60704700BF00E100E04FF40052014B1A60704700BF80E100E010B504469E
:4007C000FFF7F4FF2046FFF7DBFF0720FFF7DEFFFFF7E4FF10BD00BF054A137843F0010313701032137843F001031370704700BFA2430040014B1B681865704708ED00E0ED
:400800004001C0B2014B1870704700BF04E400E01022014B1A60704700E100E01022014B1A60704780E100E010B50446FFF7F6FF2046FFF7DFFF0720FFF7E2FFFFF7E8FF84
:4008400010BD00BF1022014B1A60704780E200E0014B1B685865704708ED00E04001C0B2014B1870704700BF05E400E02022014B1A60704700E100E02022014B1A607047DE
:4008800080E100E010B50446FFF7F6FF2046FFF7DFFF0720FFF7E2FFFFF7E8FF10BD00BF2022014B1A60704780E200E0014B1B689865704708ED00E04001C0B2014B18707C
:4008C000704700BF06E400E04022014B1A60704700E100E04022014B1A60704780E100E010B50446FFF7F6FF2046FFF7DFFF0720FFF7E2FFFFF7E8FF10BD00BF4022014BAF
:400900001A60704780E200E0014B1B681866704708ED00E04001C0B2014B1870704700BF08E400E04FF48072014B1A60704700BF00E100E04FF48072014B1A60704700BFFF
:4009400080E100E010B50446FFF7F4FF2046FFF7DBFF0720FFF7DEFFFFF7E4FF10BD00BF4FF48072014B1A60704700BF80E200E0014B1B68D865704708ED00E04001C0B2AB
:40098000014B1870704700BF07E400E08022014B1A60704700E100E08022014B1A60704780E100E010B50446FFF7F6FF2046FFF7DFFF0720FFF7E2FFFFF7E8FF10BD00BF47
:4009C0008022014B1A60704780E200E0014B1B685866704708ED00E04001C0B2014B1870704700BF09E400E04FF40072014B1A60704700BF00E100E04FF40072014B1A6086
:400A0000704700BF80E100E010B50446FFF7F4FF2046FFF7DBFF0720FFF7DEFFFFF7E4FF10BD00BF4FF40072014B1A60704700BF80E200E0014B1B689866704708ED00E0E6
:400A40004001C0B2014B1870704700BF0AE400E04FF48062014B1A60704700BF00E100E04FF48062014B1A60704700BF80E100E010B50446FFF7F4FF2046FFF7DBFF072092
:400A8000FFF7DEFFFFF7E4FF10BD00BF4FF48062014B1A60704700BF80E200E0014B1B68D866704708ED00E04001C0B2014B1870704700BF0BE400E04FF40062014B1A608B
:400AC000704700BF00E100E04FF40062014B1A60704700BF80E100E010B50446FFF7F4FF2046FFF7DBFF0720FFF7DEFFFFF7E4FF10BD00BF4FF40062014B1A60704700BF2F
:400B000080E200E0014B1B681867704708ED00E04001C0B2014B1870704700BF0CE400E04FF48052014B1A60704700BF00E100E04FF48052014B1A60704700BF80E100E028
:400B400010B50446FFF7F4FF2046FFF7DBFF0720FFF7DEFFFFF7E4FF10BD00BF4FF48052014B1A60704700BF80E200E0014B1B681864704708ED00E04001C0B2014B1870F7
:400B8000704700BF00E400E00122014B1A60704700E100E00122014B1A60704780E100E010B50446FFF7F6FF2046FFF7DFFF0720FFF7E2FFFFF7E8FF10BD00BF0122014BAF
:400BC0001A60704780E200E0014B1B685864704708ED00E04001C0B2014B1870704700BF01E400E00222014B1A60704700E100E00222014B1A60704780E100E010B5044656
:400C0000FFF7F6FF2046FFF7DFFF0720FFF7E2FFFFF7E8FF10BD00BF0222014B1A60704780E200E0014B1B689864704708ED00E04001C0B2014B1870704700BF02E400E02B
:400C40000422014B1A60704700E100E00422014B1A60704780E100E010B50446FFF7F6FF2046FFF7DFFF0720FFF7E2FFFFF7E8FF10BD00BF0422014B1A60704780E200E0AC
:400C8000014B1B68D864704708ED00E04001C0B2014B1870704700BF03E400E00822014B1A60704700E100E00822014B1A60704780E100E010B50446FFF7F6FF2046FFF733
:400CC000DFFF0720FFF7E2FFFFF7E8FF10BD00BF0822014B1A60704780E200E0000000000230800803D000BF01380046FCD17047EFF3108072B6704780F31088704700BFA5
:400D0000014B1868704700BF7081FF1F0E4B70B51E460E4C0025E41AA410A54204D056F8253098470135F8E700F092FC084B094C1E46E41AA4100025A54204D056F825303E
:400D400098470135F8E770BD5C1600005C1600005C1600006416000010B5431E0A44914204D011F8014B03F8014FF8E710BD03460244934202D003F8011BFAE77047000036
:400D80000EB400B54FF402719CB0ADF814106FF00041049107914FF6FF711DABADF81610084953F8042B02900690086802A9019300F064F8029B00221A701CB05DF804EB95
:400DC00003B070477081FF1F2DE9F0478E688246B3420C469046994640D38A8912F4906F3AD02568096902236F1A656905EB450595FBF3F57B1C4B449D4238BF1D4653055A
:400E00000FD5294600F030FB064698B121693A46FFF7A2FFA38923F4906343F08003A38113E02A4600F076FB064670B95046216900F0D6FA0C23CAF80030A3894FF0FF302A
:400E400043F04003A381BDE8F08726613E4426604E466561ED1BA560B14500D24E4632462068414600F0A0FAA36800209B1BA36023681E442660BDE8F08700002DE9F0439D
:400E80009DB003938B8906461C060D4690460CD50B6953B9402100F0E7FA2860286110B90C233360CCE040236B610023099320238DF8293030238DF82A3043461C4613F892
:400EC000012B1AB9B4EB08090FD002E0252AF5D1F8E73046294642464B46FFF775FF013000F0A980099B4B4409932378002B00F0A28000234FF0FF32049307930592069341
:400F00008DF853301A9304F101084446DFF8489121784846052200F039FA08F10108049B30B1C9EB00000122824013430493ECE7D80644BF20228DF85320190744BF2B22ED
:400F40008DF8532022782A2A02D0079923460EE0039A0134111D12680391002ABBBF524243F0020307920792B8BF04930AE01C4622780133303A092A03D80A2000FB01212B
:400F8000F5E7079123782E2B1AD163782A2B0AD1039B02341A1D1B680392002BB8BF4FF0FF3305930CE0611C00220C4623780131303B092B03D80A2000FB0232F5E7059215
:400FC000DFF8988021784046032200F0DFF938B1049AC8EB00004023834013430493013421781A48062204F101088DF8281000F0CDF988B1164B33B9039B073323F0070365
:401000000833039313E003AB0093304604A92A46104BAFF3008007E003AB0093304604A92A460C4B00F092F8421C074603D0099B3B44099341E7AB895B0601D4099801E0BE
:401040004FF0FF301DB0BDE8F08300BF2416000000000000C90D00001A160000201600002DE9F84391461F468A680B6906469342B8BF1346C9F8003091F843200C46DDF800
:40108000208012B10133C9F800302368990642BFD9F800300233C9F80030256815F006051CD094F843302268003318BF012392061FD5E118302081F843005A1C94F845102E
:4010C0002244023382F8431013E03046394604F119020123C047013007D00135E368D9F800209B1A9D42F0DBDBE74FF0FF30BDE8F8833046394604F14302C0470130F4D011
:401100002268D9F80050E36802F00602042A08BF5D1B2269A3680CBF25EAE57500259342C4BF9B1AED184FF00009A9450ADA3046394604F11A020123C0470130D5D009F136
:401140000109F2E70020BDE8F88300002DE9FF410C461746227E98466E2A06460A9B01F1430100F0B08012D8632A23D00AD8002A00F0BD80582A40F0CC8084F84520DFF891
:4011800004E257E0642A1ED0692A1CD0C1E0732A00F0B18009D86F2A2ED0702A40F0B980226842F0200222603FE0752A24D0782A3BD0AEE01A6804F14205111D1960136810
:4011C00084F84230A9E020681A6810F0800F02D0101D186008E010F0400F02F10400186002D0B2F9003000E01368002B3EDA2D225B4284F8432039E020681A6810F0800FFA
:4012000002D0101D186007E010F0400F02F10400186001D0138800E01368227EDFF864E16F2A0CBF08220A221CE07822DFF858E184F845202268186812F0800F00F1040539
:401240001D6003D1550601D5038800E00368D00744BF42F0200222601BB9226822F0200222601022002084F8430002E0DFF814E10A226568002DA8BF2068A560A4BF20F006
:401280000400206003B965B10D46B3FBF2F002FB10331EF8033005F8013D03460028F4D100E00D46082A0BD12368DA0708D5236962689A42DEBF302305F8013C05F1FF35EB
:4012C000491B21612EE025681A6815F0800F606903D0151D1D60136808E015F0400F02F104051D60136801D0188000E01860002323610D4616E01A68111D196015680021E9
:401300002846626800F042F808B1401B6060636804E004F1420584F8422001232361002384F84330CDF800803046214603AA3B46FFF796FE013002D14FF0FF301FE0304633
:4013400039462A462369C0470130F5D023689B0705D4E068039B9842B8BF18460FE00025E368039A9B1A9D42F3DA3046394604F119020123C0470130DED00135F0E704B02D
:40138000BDE8F0812B1600003C16000010B5C9B202449042034605D01C7801308C42F8D1184610BD002010BD814210B501EB020301D3421E0BE09842FBD28118D21AD342C1
:4013C00004D013F8014D01F8014DF8E710BD994204D011F8014B02F8014FF8E710BD000030B500293CD051F8042C0B1F1D49002AB8BF9B180A680C4612B95A600B6030BDBB
:4014000093420DD219685818904201BF5A5852181A60426823605A6030BD994203D80A4651680029F9D1146815199D420AD11B682344D0188842136012D1086803441360D9
:401440004B680CE002D90C23036030BD1C681819884201BF08684968001918605960536030BD00BFDC82FF1F70B5CC1C24F0030408340C2C38BF0C24002C064603DA0C23A7
:401480003360002070BD8C42F9D3204A136810461946A1B10A68121B0ED40B2A03D90A608B188C501FE08B420BBF5A684A6802605A6018BF0B4616E00B464968E9E7144DD4
:4014C0002B681BB9304600F04BF828603046214600F046F8421C0346D1D0C51C25F0030585420AD11C6003F10B001A1D20F00700821A0AD05142995070BD3046E91A00F010
:401500002FF80130BBD02B46ECE770BDDC82FF1FD882FF1FF8B5074615460E4621B91146BDE8F840FFF7A0BF1AB9FFF759FF2846F8BD00F025F8A8420ED238462946FFF759
:4015400093FF044650B131462A46FFF705FC38463146FFF745FF01E03046F8BD2046F8BD38B5064C0023054608462360FEF7DEFE431C02D1236803B12B6038BDE082FF1F9A
:4015800051F8040C0028BEBF091851F8043CC018043870470000000025642C25642C25642C25642C25642C25642C25642C25642C25642C25642C25642C25642C2564203E55
:4015C0002025640D0A00000047616C746F6E20626F61726420636F757465720D0A000000305100404000F0510040100000000140001000140140000800400140000A004CBE
:401600000140000200500140200000000051014060070048080000004300232D302B2000686C4C0065666745464700303132333435363738394142434445460030313233D3
:4016400034353637383961626364656600000000F8B500BFF8BC08BC9E4670474D000000A9030000F8B500BFF8BC08BC9E46704729000000881600000881FF1F70000000F9
:40168000700100000000000000000000E882FF1F00000000000000000000000000000000000000000000000000000000000000001816000000000000000000000000000003
:4016C0000000000000000000000000000000000000000000000000000000000000000000000000000000000000000000000000001081FF1F0000000000000000000000003B
:4017000000000000000000000000000000000000000000000000000000000000000000000000000000000000000000000000000000000000000000000000000000000000A9
:401740000000000000000000000000000000000000000000000000000000000000000000000000000000000000000000000000000000000000000000000000000000000069
:401780000000000000000000000000000000000000000000000000000000000000000000000000000000000000000000000000000000000000000000000000000000000029
:4017C00000000000000000000000000000000000000000000000000000000000000000000000000000000000000000000000000000000000000000000000000000000000E9
:020000040003F7
:0200000480007A
:40000000025200400164004002650040210001401B010140200201402B03014010040140100501400407014059080140370901400C0B0140380C0140250D0140030F014092
:4000400001150140011701405D1801404F1901406B1A01404B1B01400B400140234101400A4201400643014007450140054601400348014003490140084D0140075001405C
:4000800060806180880F89728A3C000205010A020B040F0217012A0131013202330234013704580459045C115F018208860388088C019F01A204AB02B002B102B204B4012C
:4000C000B501B608D804D904DC11DF01001104400504074412081440180819081C401D041F5020012208234027442F0832083740381839808440C0FAC412CA20CC12CE0EC0
:40010000E2821004130116022A053001320433013602580459045C115F018201840287028E048F04900493019E029F08B004B104B201B302B402B508B701D804D904DC11CB
:40014000DF010002022209800A800C040E80172018101A041B011DC01EA020202262272031403202370238803B0480408604870288048B048D408F0894109580A709AD0844
:40018000AF50B341C00DC239C440CC89CE0AE010E205E4B0E601EAA02601320158045C015F0186019202A501AF01B001B402B501D804D904DC11DF0104040D021020181081
:4001C0001D021F2227082F22A020A210A820B011C020C210C404CA50AE10AF08B414EC40060908090B03110116041A081E04240929042C022E0830083102320333013504BE
:40020000360438083E413F1040314102450C460B470E481549FF4AFF4BFF4EF04F44500C5401580459045A045B045C105F0166C06A406B0280178105830A8401850F861633
:40024000880489048A038B018D0C8E078F03900392049310940695059611970A9817990A9B059D039E079F0CA207A30FA408A50FA808AB10AC08AF20B010B120B30FB407AB
:40028000B510B608B802BA20BB08BF10D804D904DF01000401210301041005040AA90C080F0A11561601170419601A011B821D801E90222223102420260127082A502BA06A
:4002C0002F08308032183302360138853B103F20460147244F0857485C225E805F08944195089A109D40A008A310A720B710C06FC2EFC4AFCA2FCC8FCE2FD070D6F0E8100B
:40030000944195089A109D40A008A720AB01B310B402B702EA81EC8008010C0416031B012A042F0230013204330234023701580459045C115F0184018E03960897019C0873
:40034000A204AF02B008B202B302B401B604B701C035C102C204C401C6E0C70CC818C9FFCAFFCBFFCC62CDA0CEF0CF41D00CD804D904DA04DC11DF01E640E702E910EA301C
:40038000EB10ED10EE10EF1201880510070109880F101301172019881A041B011D101E401F082188272128022F0231083720404141044320494050085210824083089604E9
:4003C000A701C0C5C225C448CA18CC22D00FD208E20186048B01E280E201EA04000C010C0203031304100505060F070A080509400A0A0B950DA01103131C1408159F1602CE
:400400001760180519601A301B9F1C0F1E20200321F5220C2580271F280A290A2A152B052D102E4031FF320F34703A083F01521C580459045B045F0180018320847F8549FF
:400440008706887989028A068C068F109006910E9341946795069610982799069A489B499D489E58A004A104A402A54FA806AB10AE01AF49B046B140B21FB30EB507B62060
:40048000B730BA28BB28BE40BF40D602D710D804D904DB04DF010020024003210620074809210A210E2610081202130617A1184019801A281B211E241F18202521242249FE
:4004C000278029602A022B202E082F8A3008310132503729382239083A403B803D023E343F80598069546C406D0A6F507018720273067480770189018A088C048D019211A4
:40050000931094D5955D96A899409D049E419F25A180A222A344A480A501A608A721A830AB04B002B308C07FC2EFC4DFCAFFCCEFCEFFD608001002080467050907F60924E3
:400540000B120D360E180FC910211147124213B8148015FF184419361A221BC91C021D1B1E051F2421B822182347240825FF261028672FFF3018328033C034603607373F52
:400580003A023B803E04541C5604580459045B045F01800481408203830284A6850C861887108A068B638C018E029140930194CA950C963097B098C8990C9A369BD39C0195
:4005C000A004A203A394A626A743A96BAA01AB90AE58B003B23CB3E0B4C0B53FB63CB820BA8ABB28BE10C002C704C9FFCA07CBFFCC40CD20CEF0CF05D008D804D904DA0480
:40060000DF01E040E1A8E240E3200106030104400504060807400A050BA00E280F021040111A16221711182219221A051B011C401D241E021F862140220424102614272C29
:40064000284029402B202E0A2F04325833013729380439803B103D023E103F084520560B5A0A6180622282028C109004911492B293B0941299409A209B519D249E099F2CFA
:40068000A185A228A324A601A782AE40C0FDC2EFC4FECAEBCCEFCEEED020D603D80DEA083140330136813B40850887018A80CCF0CE10E240E41001080204068808100B80E3
:4006C0000F813312348036023B1082018310841086028A808B408E0C920898809D08A302A601AE04AF42B080B140C0F0C2F0CCF0CE10E260E440E680EA10EE50320433205D
:400700003580370492089710A340AB01CCF0E8809D809F04AF30B740EA10EE1000020120072409048320C00FC208AB04B001B524EA09EE029F04A980EA2083049F04E28032
:40074000130877108F109F08AF08C408DE04E402000308020A020C030E0310011C010000FFFFFF0F00000000FF0000FF00000000000000004080800080000000000B0B00FF
:40078000000000001F00001F0000000000000000000000000000000000000000000000000000000000000000000000000000000000000000000000000000000000000000FB
:4007C00000000000000000000000000000000000000000000000000000000000000000000000000000000000000000000000000000000000000000000000000000000000F9
:4008000000000000000000000000000000000000000000000000000000000000000000000000000000000000000000000000000000000000000000000000000000000000B8
:400840000000000000000000000000000000000000000000000000000000000000000000000000000000000000000000000000000000000000000000000000000000000078
:400880000000000000000000000000000000000000000000000000000000000000000000000000000000000000000000000000000000000000000000000000000000000038
:0200000490006A
:0400000000004005B7
:0200000490105A
:04000000BC90ACAF55
:0200000490303A
:02000000C82F07
:0200000490402A
:4000000000000000000000000000000000000000000000000000000000000000000000000000000000000000000000000000000000000000000000000000000000000000C0
:400040000000000000000000000000000000000000000000000000000000000000000000000000000000000000000000000000000000000000000000000000000000000080
:400080000000000000000000000000000000000000000000000000000000000000000000000000000000000000000000000000000000000000000000000000000000000040
:4000C0000000000000000000000000000000000000000000000000000000000000000000000000000000000000000000000000000000000000000000000000000000000000
:0200000490501A
:0C00000000012E16106900012E20D89877
:00000001FF